:100000000C942A000C9447000C9447000C94470071
:100010000C9447000C94E3020C9447000C944700A6
:100020000C9447000C9447000C9447000C94470034
:100030000C9447000C9447000C9447000C94470024
:100040000C9447000C9447000C9447000C94470014
:100050000C94470011241FBECFE5D8E0DEBFCDBF12
:1000600010E0A0E6B0E0E2EFF2E102C005900D92F0
:10007000AE3BB107D9F710E0AEEBB0E001C01D9286
:10008000A13CB107E1F70E949B000C9477090C9406
:10009000000020E030E04AE754E40E94230820E01A
:1000A00034E244E759E40E94080920E030E040E0EF
:1000B0005FE30E9408090E948B08462F572F682F84
:1000C000792F411551056105710559F080E090E0E7
:1000D000DC010196A11DB11D84179507A607B7077E
:1000E000C1F7089520E034E244E759E40E94230870
:1000F00020E034E244E759E40E94080920E030E0BF
:1001000040E05FE30E9408090E948B08462F572FAA
:10011000682F792F411551056105710559F080E06F
:1001200090E0DC010196A11DB11D84179507A6077B
:10013000B707C1F7089581E00E94A8070E94EC0666
:100140000E94240682E060E041E00E94F40282E026
:1001500061E041E00E94F40282E062E041E00E943E
:10016000F40282E063E041E00E94F40282E064E095
:1001700041E00E94F40282E065E041E00E94F40266
:1001800080E690E00E94670782E061E00E948707B6
:100190008BE690E00E9467070E9404080E941D08F9
:1001A0000F2EF7E9AF2EF0E0BF2EF02D0F2EF0E668
:1001B000EF2EF0E0FF2EF02D0F2EFBE6CF2EF0E01D
:1001C000DF2EF02D0F2EF8E78F2EF0E09F2EF02D72
:1001D0000F2EF1E86F2EF0E07F2EF02D0F2EFCE8B1
:1001E0004F2EF0E05F2EF02DDAE00E945D068F3F8B
:1001F00009F4BDC0813309F0A3C00E947D07C4018A
:100200000E94670781E067E00E94870760E070E076
:1002100088E494E40E9449000E945D06182F8F3FF5
:10022000D9F30E94480760E070E08AEF93E40E94EF
:1002300049000E945D06C82F8F3FD9F30E944807EE
:1002400060E070E08AEF93E40E944900110F812F73
:10025000880F880F180F1051C10FC093BE000E9465
:100260007D07C3010E94670781E069E00E9487075C
:1002700060E070E088E494E40E9449000E945D061A
:10028000182F8F3FD9F30E94480760E070E08AEF93
:1002900093E40E9449000E945D06C82F8F3FD9F366
:1002A0000E94480760E070E08AEF93E40E944900F2
:1002B000110F812F880F880F180F1051C10FC09395
:1002C000BF000E947D07C2010E94670781E069E0CC
:1002D0000E94870760E070E088E494E40E9449008F
:1002E0000E945D06182F8F3FD9F30E94480760E0F7
:1002F00070E08AEF93E40E9449000E945D06C82FD7
:100300008F3FD9F30E94480760E070E08AEF93E4E2
:100310000E944900110F812F880F880F180F10516C
:10032000C10FC093C0000E947D07C7010E946707EC
:1003300082E061E00E948707C6010E94670717C03C
:100340000E947D07C5010E94670760E070E08AE7B0
:1003500094E40E9449000E947D07C7010E9467073C
:1003600082E061E00E948707C6010E94670782E081
:1003700061E041E00E94AA0382E062E041E00E9465
:10038000AA0382E063E041E00E94AA0382E064E005
:1003900041E00E94AA0382E065E041E00E94AA03D6
:1003A00082E060E040E00E94AA038091C0006D2FCF
:1003B0000E946B0981E0692F0E94AC0760E070E049
:1003C00080EA90E40E94490082E060E041E00E94FF
:1003D000AA0382E062E041E00E94AA0382E063E0B7
:1003E00041E00E94AA0382E064E041E00E94AA0387
:1003F00082E065E041E00E94AA0382E061E040E023
:100400000E94AA038091C0006D2F0E946B09682F83
:1004100081E00E94AC0760E070E080EA90E40E9416
:10042000490082E060E041E00E94AA0382E061E0CE
:1004300041E00E94AA0382E063E041E00E94AA0337
:1004400082E064E041E00E94AA0382E065E041E0CE
:100450000E94AA0382E062E040E00E94AA03809129
:10046000BF006D2F0E946B0981E0692F0E94AC07CD
:1004700060E070E080EA90E40E94490082E060E081
:1004800041E00E94AA0382E061E041E00E94AA03E9
:1004900082E062E041E00E94AA0382E064E041E081
:1004A0000E94AA0382E065E041E00E94AA0382E084
:1004B00063E040E00E94AA038091BF006D2F0E947C
:1004C0006B09682F81E00E94AC0760E070E080EA71
:1004D00090E40E94490082E060E041E00E94AA03AB
:1004E00082E061E041E00E94AA0382E062E041E034
:1004F0000E94AA0382E063E041E00E94AA0382E036
:1005000065E041E00E94AA0382E064E040E00E94CE
:10051000AA038091BE006D2F0E946B0981E0692FB4
:100520000E94AC0760E070E080EA90E40E9449001D
:1005300082E060E041E00E94AA0382E061E041E0E5
:100540000E94AA0382E062E041E00E94AA0382E0E6
:1005500063E041E00E94AA0382E064E041E00E947F
:10056000AA0382E065E040E00E94AA038091BE00F9
:100570006D2F0E946B09682F81E00E94AC0760E03C
:1005800070E080EA90E40E9449008091C0008C33C2
:1005900038F01092C0008091BF008F5F8093BF0041
:1005A0008091BF008C3338F01092BF008091BE0064
:1005B0008F5F8093BE008091BE00883108F415CE15
:1005C0001092BE0012CE1F920F920FB60F921124FE
:1005D0008F938091C0008F5F8093C0008F910F90A8
:1005E0000FBE0F901F901895813049F1813038F07F
:1005F000823009F444C0833009F07EC05FC04423D8
:1006000071F42AB381E090E0AC0102C0440F551FA1
:100610006A95E2F7BA01609562236ABB089541309A
:1006200009F06AC02AB381E090E0AC0102C0440F37
:10063000551F6A95E2F7BA01622B6ABB08954423FD
:1006400071F427B381E090E0AC0102C0440F551F64
:100650006A95E2F7BA016095622367BB089541305D
:1006600009F04AC027B381E090E0AC0102C0440F1A
:10067000551F6A95E2F7BA01622B67BB08954423C0
:1006800071F424B381E090E0AC0102C0440F551F27
:100690006A95E2F7BA016095622364BB0895413020
:1006A00059F524B381E090E0AC0102C0440F551F1E
:1006B0006A95E2F7BA01622B64BB0895442371F492
:1006C00021B381E090E0AC0102C0440F551F6A9550
:1006D000E2F7BA016095622361BB0895413061F48D
:1006E00021B381E090E0AC0102C0440F551F6A9530
:1006F000E2F7BA01622B61BB0895813081F081304D
:1007000028F08230A9F0833021F51BC0662311F454
:100710001ABA08956130E9F48FEF8ABB0895662311
:1007200011F417BA08956130A1F48FEF87BB0895D3
:10073000662311F414BA0895613059F48FEF84BB25
:100740000895662311F411BA0895613011F48FEF02
:1007500081BB0895813049F1813038F0823009F44D
:1007600044C0833009F07EC05FC0442371F42BB3D2
:1007700081E090E0AC0102C0440F551F6A95E2F79A
:10078000BA01609562236BBB0895413009F06AC0DD
:100790002BB381E090E0AC0102C0440F551F6A9575
:1007A000E2F7BA01622B6BBB0895442371F428B3BE
:1007B00081E090E0AC0102C0440F551F6A95E2F75A
:1007C000BA016095622368BB0895413009F04AC0C0
:1007D00028B381E090E0AC0102C0440F551F6A9538
:1007E000E2F7BA01622B68BB0895442371F425B384
:1007F00081E090E0AC0102C0440F551F6A95E2F71A
:10080000BA016095622365BB0895413059F525B35F
:1008100081E090E0AC0102C0440F551F6A95E2F7F9
:10082000BA01622B65BB0895442371F422B381E0C1
:1008300090E0AC0102C0440F551F6A95E2F7BA017F
:100840006095622362BB0895413061F422B381E078
:1008500090E0AC0102C0440F551F6A95E2F7BA015F
:10086000622B62BB0895813089F0813028F082309C
:10087000B9F0833049F51EC029B330E0C90102C088
:10088000959587956A95E2F78170089526B330E0D3
:10089000C90102C0959587956A95E2F78170089520
:1008A00023B330E0C90102C0959587956A95E2F7B8
:1008B0008170089520B330E0C90102C095958795F5
:1008C0006A95E2F78170089580E00895813049F0DB
:1008D000813028F0823039F0833041F406C06BBBA0
:1008E000089568BB089565BB089562BB0895813083
:1008F000A1F0813028F08230E9F08330A1F527C0E3
:100900002BB381E090E0AC0102C0440F551F6A9503
:10091000E2F7BA0162276BBB089528B381E090E04B
:10092000AC0102C0440F551F6A95E2F7BA01622775
:1009300068BB089525B381E090E0AC0102C0440F8C
:10094000551F6A95E2F7BA01622765BB089522B385
:1009500081E090E0AC0102C0440F551F6A95E2F7B8
:10096000BA01622762BB0895813059F0813028F0C6
:10097000823059F0833081F40CC08BB380958BBBEF
:10098000089588B3809588BB089585B3809585BB0D
:10099000089582B3809582BB08958130A1F08130A3
:1009A00028F08230E9F08330A1F527C02BB381E035
:1009B00090E0AC0102C0440F551F6A95E2F7BA01FE
:1009C000622B6BBB089528B381E090E0AC0102C0BC
:1009D000440F551F6A95E2F7BA01622B68BB089570
:1009E00025B381E090E0AC0102C0440F551F6A9529
:1009F000E2F7BA01622B65BB089522B381E090E073
:100A0000AC0102C0440F551F6A95E2F7BA01622B90
:100A100062BB08958130A9F0813028F08230F9F06E
:100A20008330C1F52AC02BB381E090E0AC0102C055
:100A3000440F551F6A95E2F7BA01609562236BBBBC
:100A4000089528B381E090E0AC0102C0440F551F27
:100A50006A95E2F7BA016095622368BB089525B3F1
:100A600081E090E0AC0102C0440F551F6A95E2F7A7
:100A7000BA016095622365BB089522B381E090E0DE
:100A8000AC0102C0440F551F6A95E2F7BA016095A8
:100A9000622362BB08956F70813071F0813028F05D
:100AA000823089F08330E1F415C08BB3807F8BBB3B
:100AB0008BB3682B6BBB089588B3807F88BB88B3EA
:100AC000682B68BB089585B3807F85BB85B3682B91
:100AD00065BB089582B3807F82BB82B3682B62BB03
:100AE00008956295607F813071F0813028F0823006
:100AF00089F08330E1F415C08BB38F708BBB8BB35F
:100B0000682B6BBB089588B38F7088BB88B3682B44
:100B100068BB089585B38F7085BB85B3682B65BBB3
:100B2000089582B38F7082BB82B3682B62BB089535
:100B30008FB780688FBF08958FB78F778FBF089565
:100B4000813049F0813018F0823061F408C08BB7F1
:100B500080648BBF08958BB780688BBF08958BB777
:100B600080628BBF0895813049F0813018F0823067
:100B700061F408C08BB78F7B8BBF08958BB78F77DD
:100B80008BBF08958BB78F7D8BBF0895882331F578
:100B9000613079F0613030F0623091F0633009F00B
:100BA00052C015C085B78E7F85BF85B78D7F85BF45
:100BB000089585B7816085BF85B78D7F85BF08950E
:100BC00085B78E7F85BF85B7826085BF089585B75D
:100BD000816085BF85B7826085BF0895813029F522
:100BE000613071F0613028F0623089F0633059F57E
:100BF00015C085B78B7F85BF85B7877F85BF089573
:100C000085B7846085BF85B7877F85BF089585B721
:100C10008B7F85BF85B7886085BF089585B7846061
:100C200085BF85B7886085BF0895823061F46230E2
:100C300019F0633041F404C084B78F7B84BF0895FA
:100C400084B7806484BF089583E060E041E00E943F
:100C5000F40283E061E041E00E94F40283E062E09C
:100C600041E00E94F40283E063E041E00E94F4026C
:100C700083E064E040E00E94F40283E065E040E04D
:100C80000E94F40283E066E040E00E94F40283E008
:100C900067E040E00E94F40283E064E00E94CD043B
:100CA00083E065E00E94CD0483E066E00E94CD040D
:100CB00083E067E00E94CD0408950F931F93CF93C4
:100CC000DF93CDB7DEB760970FB6F894DEBF0FBEE7
:100CD000CDBFDE011196E4EAF0E080E101900D92D3
:100CE0008150E1F700E083E060E041E00E94AA0368
:100CF00083E061E041E00E94AA0383E062E041E01A
:100D00000E94AA0383E063E041E00E94AA0383E01B
:100D1000602F40E00E94AA0310E0612F6C5F83E027
:100D20000E943304882361F4E02FF0E0EE0FFF1FF0
:100D3000EE0FFF1FE10FF11DEC0FFD1F818104C0BD
:100D40001F5F143051F70BC060960FB6F894DEBFEA
:100D50000FBECDBFDF91CF911F910F9108950F5F0F
:100D6000043009F68FEFF0CFCF93C82F60E041E059
:100D70000E94AA0360E070E080E890E40E944900CD
:100D80008C2F60E040E00E94AA0360E070E080E801
:100D900090E40E944900CF910895CF93C82F682F07
:100DA00062956F7080E00E94710580E061E040E034
:100DB0000E94AA0380E00E94B40680E06C2F0E948B
:100DC000710580E00E94B40660E070E080E090E48D
:100DD0000E944900CF91089560E070E088EC93E4B0
:100DE0000E94490080E060E041E00E94F40280E05F
:100DF00061E041E00E94F40280E062E041E00E9494
:100E0000F40280E064E041E00E94F40280E065E0EA
:100E100041E00E94F40280E066E041E00E94F402BA
:100E200080E067E041E00E94F40280E062E040E0A0
:100E30000E94AA0382E00E94CD0660E070E080EA92
:100E400091E40E94490088E20E94CD0660E070E0D3
:100E500080E890E40E9449008EE00E94CD0660E0A8
:100E600070E080E890E40E94490081E00E94CD0695
:100E700060E070E080EA91E40E94490086E00E9410
:100E8000CD0660E070E080E890E40E94490008959B
:100E9000CF93C82F682F62956F7080E00E94710514
:100EA00080E061E041E00E94AA0380E00E94B40675
:100EB00080E06C2F0E94710580E00E94B40660E023
:100EC00070E080E090E40E944900CF9108950F9374
:100ED0001F93CF938C01FC018081882351F0C0E0E7
:100EE0000E944807CF5FF801EC0FF11D8081882335
:100EF000B9F7CF911F910F91089581E00E94CD061F
:100F000060E070E080EA91E40E9449000895282F93
:100F10002150223070F4662371F0613170F4813019
:100F200019F4962F91580AC0823041F4962F9154AB
:100F300005C090E803C090E801C090E8892F0E94A6
:100F4000CD0660E070E080E090E40E9449000895E2
:100F500061E00E947D030895CF93DF93CDB7DEB7A4
:100F60002A970FB6F894DEBF0FBECDBFDE011196F3
:100F7000E4EBF0E09AE001900D929150E1F7FE0170
:100F8000E60FF11D61810E9466042A960FB6F8945F
:100F9000DEBF0FBECDBFDF91CF910895CF93C82F95
:100FA00060E041E00E94F4028C2F61E041E00E9489
:100FB000F4028C2F62E041E00E94F4028C2F63E087
:100FC00041E00E94F402CF9108950E944B050895DC
:100FD00083B7816083BF83B78D7F83BF83B784600E
:100FE00083BF83B78F7B83BF83B7877F83BF83B77D
:100FF0008F7E83BF83B7806283BF08950E94980568
:1010000089B7816089BF089582B5886082BD85B542
:10101000816085BD85B58D7F85BD85B5846085BDC5
:1010200085B58F7B85BD85B5877F85BD85B58F7E71
:1010300085BD85B5806285BD08950E94980589B7F4
:10104000806489BF08950CD0A9C0A1D040F098D089
:1010500030F021F45F3F19F08AC05111D3C08DC028
:10106000AED098F39923C9F35523B1F3951B550BD3
:10107000BB27AA2762177307840738F09F5F5F4F6B
:10108000220F331F441FAA1FA9F333D00E2E3AF0AC
:10109000E0E830D091505040E695001CCAF729D0C6
:1010A000FE2F27D0660F771F881FBB1F2617370715
:1010B0004807AB07B0E809F0BB0B802DBF01FF2745
:1010C00093585F4F2AF09E3F510568F050C09AC078
:1010D0005F3FECF3983EDCF3869577956795B7957F
:1010E000F7959F5FC9F7880F911D9695879597F99A
:1010F0000895E1E0660F771F881FBB1F6217730713
:101100008407BA0720F0621B730B840BBA0BEE1F27
:1011100088F7E09508955BD088F09F5790F0B92F3D
:101120009927B751A0F0D1F0660F771F881F991F3C
:101130001AF0BA95C9F712C0B13081F062D0B1E0AF
:1011400008955FC0672F782F8827B85F39F0B93FBF
:10115000CCF3869577956795B395D9F73EF490953E
:101160008095709561957F4F8F4F9F4F089597F9A8
:101170009F6780E870E060E008959FEF80EC08953D
:1011800000240A9416161706180609060895002466
:101190000A9412161306140605060895092E0394E0
:1011A000000C11F4882352F0BB0F40F4BF2B11F454
:1011B00060FF04C06F5F7F4F8F4F9F4F089557FDB3
:1011C0009058440F551F59F05F3F71F04795880FB5
:1011D00097FB991F61F09F3F79F08795089512164C
:1011E00013061406551FF2CF4695F1DF08C01616F8
:1011F00017061806991FF1CF8695710561050894A9
:101200000895E894BB2766277727CB0197F90895BF
:101210000BD0C4CFB5DF28F0BADF18F0952309F062
:10122000A6CFABCF1124EECFCADFA0F3959FD1F3A9
:10123000950F50E0551F629FF001729FBB27F00D84
:10124000B11D639FAA27F00DB11DAA1F649F6627D9
:10125000B00DA11D661F829F2227B00DA11D621F28
:10126000739FB00DA11D621F839FA00D611D221FE2
:10127000749F3327A00D611D231F849F600D211DC6
:10128000822F762F6A2F11249F5750408AF0E1F069
:1012900088234AF0EE0FFF1FBB1F661F771F881FB2
:1012A00091505040A9F79E3F510570F060CFAACFF2
:1012B0005F3FECF3983EDCF3869577956795B7959D
:1012C000F795E7959F5FC1F7FE2B880F911D9695C7
:1012D000879597F90895991B79E004C0991F96178F
:1012E00008F0961B881F7A95C9F780950895F894A1
:0212F000FFCF2E
:1012F2005072657373203120746F007365742074AB
:1013020068652074696D6500486F7572733D2D2D97
:10131200004D696E757465733D2D2D005365636FC5
:101322006E64733D2D2D0057726F6E672063686F78
:10133200696365003738392F3435362A3132332D17
:0E13420041303D2B3F065B4F666D7D477F6F50
:00000001FF
