S019000054656D70657261747572655F6D657465722E7372656301
S11300000C942A000C9447000C9447000C9447006D
S11300100C9447000C9447000C9447000C94470040
S11300200C9447000C9447000C9447000C94470030
S11300300C9447000C9447000C9447000C94470020
S11300400C9447000C9447000C9447000C94470010
S11300500C94470011241FBECFE5D8E0DEBFCDBF0E
S113006010E0A0E6B0E0EEE2FCE002C005900D92E4
S1130070A636B107D9F710E0A6E6B0E001C01D929C
S1130080A736B107E1F70E940B040C9415060C94F3
S1130090000038983E9A3F9A379A3098319A329AAB
S11300A00895369A86B184FFFDCF349A84B190E0E6
S11300B045B1342F20E0822B932B089520E030E0CB
S11300C04AE754E40E94840420E034E244E759E41B
S11300D00E94A60520E030E040E05FE30E94A60510
S11300E00E94EC04462F572F682F792F4115510594
S11300F06105710559F080E090E0DC010196A11DD5
S1130100B11D84179507A607B707C1F7089520E026
S113011034E244E759E40E94840420E034E244E7F2
S113012059E40E94A60520E030E040E05FE30E942D
S1130130A6050E94EC04462F572F682F792F4115EE
S113014051056105710559F080E090E0DC010196EC
S1130150A11DB11D84179507A607B707C1F7089518
S1130160813049F1813038F0823009F444C0833061
S113017009F07EC05FC0442371F42AB381E090E0AB
S1130180AC0102C0440F551F6A95E2F7BA016095AD
S113019062236ABB0895413009F06AC02AB381E042
S11301A090E0AC0102C0440F551F6A95E2F7BA0112
S11301B0622B6ABB0895442371F427B381E090E075
S11301C0AC0102C0440F551F6A95E2F7BA0160956D
S11301D0622367BB0895413009F04AC027B381E028
S11301E090E0AC0102C0440F551F6A95E2F7BA01D2
S11301F0622B67BB0895442371F424B381E090E03B
S1130200AC0102C0440F551F6A95E2F7BA0160952C
S1130210622364BB0895413059F524B381E090E032
S1130220AC0102C0440F551F6A95E2F7BA01622B74
S113023064BB0895442371F421B381E090E0AC01E0
S113024002C0440F551F6A95E2F7BA016095622314
S113025061BB0895413061F421B381E090E0AC01C9
S113026002C0440F551F6A95E2F7BA01622B61BBC5
S11302700895813081F0813028F08230A9F08330F4
S113028021F51BC0662311F41ABA08956130E9F40C
S11302908FEF8ABB0895662311F417BA089561306D
S11302A0A1F48FEF87BB0895662311F414BA08955F
S11302B0613059F48FEF84BB0895662311F411BAA9
S11302C00895613011F48FEF81BB0895813049F1B5
S11302D0813038F0823009F444C0833009F07EC0A4
S11302E05FC0442371F42BB381E090E0AC0102C001
S11302F0440F551F6A95E2F7BA01609562236BBB00
S11303000895413009F06AC02BB381E090E0AC015C
S113031002C0440F551F6A95E2F7BA01622B6BBB0A
S11303200895442371F428B381E090E0AC0102C045
S1130330440F551F6A95E2F7BA016095622368BBC2
S11303400895413009F04AC028B381E090E0AC013F
S113035002C0440F551F6A95E2F7BA01622B68BBCD
S11303600895442371F425B381E090E0AC0102C008
S1130370440F551F6A95E2F7BA016095622365BB85
S11303800895413059F525B381E090E0AC0102C0F5
S1130390440F551F6A95E2F7BA01622B65BB0895B5
S11303A0442371F422B381E090E0AC0102C0440F15
S11303B0551F6A95E2F7BA016095622362BB0895FE
S11303C0413061F422B381E090E0AC0102C0440FFB
S11303D0551F6A95E2F7BA01622B62BB089581301A
S11303E089F0813028F08230B9F0833049F51EC09D
S11303F029B330E0C90102C0959587956A95E2F763
S11304008170089526B330E0C90102C0959587959F
S11304106A95E2F78170089523B330E0C90102C000
S1130420959587956A95E2F78170089520B330E039
S1130430C90102C0959587956A95E2F78170089580
S113044080E00895813049F0813028F0823039F01D
S1130450833041F406C06BBB089568BB089565BB47
S1130460089562BB08958130A1F0813028F0823074
S1130470E9F08330A1F527C02BB381E090E0AC0113
S113048002C0440F551F6A95E2F7BA0162276BBB9D
S1130490089528B381E090E0AC0102C0440F551FD9
S11304A06A95E2F7BA01622768BB089525B381E033
S11304B090E0AC0102C0440F551F6A95E2F7BA01FF
S11304C0622765BB089522B381E090E0AC0102C0CD
S11304D0440F551F6A95E2F7BA01622762BB08957B
S11304E0813059F0813028F0823059F0833081F422
S11304F00CC08BB380958BBB089588B3809588BB63
S1130500089585B3809585BB089582B3809582BB99
S113051008958130A1F0813028F08230E9F08330F1
S1130520A1F527C02BB381E090E0AC0102C0440FD9
S1130530551F6A95E2F7BA01622B6BBB089528B385
S113054081E090E0AC0102C0440F551F6A95E2F7C8
S1130550BA01622B68BB089525B381E090E0AC0139
S113056002C0440F551F6A95E2F7BA01622B65BBBE
S1130570089522B381E090E0AC0102C0440F551FFE
S11305806A95E2F7BA01622B62BB08958130A9F043
S1130590813028F08230F9F08330C1F52AC02BB3C2
S11305A081E090E0AC0102C0440F551F6A95E2F768
S11305B0BA01609562236BBB089528B381E090E093
S11305C0AC0102C0440F551F6A95E2F7BA01609569
S11305D0622368BB089525B381E090E0AC0102C0BA
S11305E0440F551F6A95E2F7BA016095622365BB13
S11305F0089522B381E090E0AC0102C0440F551F7E
S11306006A95E2F7BA016095622362BB08956F7040
S1130610813071F0813028F0823089F08330E1F448
S113062015C08BB3807F8BBB8BB3682B6BBB0895DA
S113063088B3807F88BB88B3682B68BB089585B373
S1130640807F85BB85B3682B65BB089582B3807FAB
S113065082BB82B3682B62BB08956295607F813050
S113066071F0813028F0823089F08330E1F415C0D4
S11306708BB38F708BBB8BB3682B6BBB089588B324
S11306808F7088BB88B3682B68BB089585B38F705F
S113069085BB85B3682B65BB089582B38F7082BB1D
S11306A082B3682B62BB0895CF93C82F60E041E00A
S11306B00E94660160E070E080E890E40E945E00C1
S11306C08C2F60E040E00E94660160E070E080E80A
S11306D090E40E945E00CF910895682F83E00E9409
S11306E0220281E061E040E00E94660181E00E9414
S11306F05403089560E070E088EC93E40E945E0087
S113070081E060E041E00E94B00081E061E041E00E
S11307100E94B00081E062E041E00E94B00083E00A
S113072061E00E94390181E062E040E00E946601DC
S113073088E30E946D0360E070E080E890E40E942A
S11307405E008CE00E946D0360E070E080E890E45D
S11307500E945E0081E00E946D0360E070E080EA28
S113076091E40E945E0086E00E946D0360E070E008
S113077080E890E40E945E000895682F83E00E9460
S1130780220281E061E041E00E94660181E00E9472
S1130790540308950F931F93CF938C01FC01808120
S11307A0882351F0C0E00E94BD03CF5FF801EC0F35
S11307B0F11D80818823B9F7CF911F910F9108957E
S11307C081E00E946D0360E070E080EA91E40E94A1
S11307D05E000895282F2150223070F4662371F0B2
S11307E0613170F4813019F4962F91580AC0823027
S11307F041F4962F915405C090E803C090E801C0DD
S113080090E8892F0E946D0360E070E080E090E43E
S11308100E945E0008950E947A030E94490080E6C7
S113082090E00E94CA03D4E6CAE00E945100BC01D1
S113083080E090E00E94180520E030E040E85EE3AC
S11308400E94A605DC01CB01BC01CD010E94EC0491
S1130850609366006A3098F481E066E00E94EA03DF
S113086080916600805D0E94BD038FED0E94BD03F0
S113087083E40E94BD0380E20E94BD03D6CF6436A8
S1130880E0F481E066E00E94EA03809166006C2F48
S11308900E940906805D0E94BD03809166006C2F52
S11308A00E940906892F805D0E94BD038FED0E947E
S11308B0BD0383E40E94BD03B8CF81E066E00E94DB
S11308C0EA03809166006D2F0E940906805D0E94F4
S11308D0BD03809166006C2F0E9409060E940906E0
S11308E0892F805D0E94BD03809166006C2F0E9459
S11308F00906892F805D0E94BD038FED0E94BD0310
S113090083E40E94BD0391CF0CD0E6C0DED040F05A
S1130910D5D030F021F45F3F19F0C7C0511110C198
S1130920CAC0EBD098F39923C9F35523B1F3951BAF
S1130930550BBB27AA2762177307840738F09F5FFC
S11309405F4F220F331F441FAA1FA9F333D00E2E6B
S11309503AF0E0E830D091505040E695001CCAF7D8
S113096029D0FE2F27D0660F771F881FBB1F26179D
S113097037074807AB07B0E809F0BB0B802DBF0170
S1130980FF2793585F4F2AF09E3F510568F08DC0B2
S1130990D7C05F3FECF3983EDCF386957795679577
S11309A0B795F7959F5FC9F7880F911D9695879521
S11309B097F90895E1E0660F771F881FBB1F621740
S11309C073078407BA0720F0621B730B840BBA0BFE
S11309D0EE1F88F7E095089598D088F09F5790F01F
S11309E0B92F9927B751A0F0D1F0660F771F881F50
S11309F0991F1AF0BA95C9F712C0B13081F09FD08F
S1130A00B1E008959CC0672F782F8827B85F39F02C
S1130A10B93FCCF3869577956795B395D9F73EF4AE
S1130A2090958095709561957F4F8F4F9F4F089556
S1130A30E89409C097FB3EF4909580957095619574
S1130A407F4F8F4F9F4F9923A9F0F92F96E9BB272A
S1130A509395F695879577956795B795F111F8CFA6
S1130A60FAF4BB0F11F460FF1BC06F5F7F4F8F4F11
S1130A709F4F16C0882311F096E911C0772321F007
S1130A809EE8872F762F05C0662371F096E8862F9F
S1130A9070E060E02AF09A95660F771F881FDAF7F6
S1130AA0880F9695879597F9089597F99F6780E839
S1130AB070E060E008959FEF80EC089500240A94AC
S1130AC01616170618060906089500240A94121625
S1130AD01306140605060895092E0394000C11F458
S1130AE0882352F0BB0F40F4BF2B11F460FF04C005
S1130AF06F5F7F4F8F4F9F4F089557FD9058440F5E
S1130B00551F59F05F3F71F04795880F97FB991F68
S1130B1061F09F3F79F08795089512161306140625
S1130B20551FF2CF4695F1DF08C0161617061806B2
S1130B30991FF1CF86957105610508940895E8948D
S1130B40BB2766277727CB0197F908950BD0C4CF2D
S1130B50B5DF28F0BADF18F0952309F0A6CFABCFA4
S1130B601124EECFCADFA0F3959FD1F3950F50E087
S1130B70551F629FF001729FBB27F00DB11D639F4B
S1130B80AA27F00DB11DAA1F649F6627B00DA11DF1
S1130B90661F829F2227B00DA11D621F739FB00D97
S1130BA0A11D621F839FA00D611D221F749F332707
S1130BB0A00D611D231F849F600D211D822F762FA0
S1130BC06A2F11249F5750408AF0E1F088234AF09D
S1130BD0EE0FFF1FBB1F661F771F881F91505040E9
S1130BE0A9F79E3F510570F060CFAACF5F3FECF3A9
S1130BF0983EDCF3869577956795B795F795E795D5
S1130C009F5FC1F7FE2B880F911D9695879597F9E5
S1130C100895991B79E004C0991F961708F0961B54
S1110C20881F7A95C9F780950895F894FFCF40
S1090C2E54454D50200066
S9030000FC
