:100000000C942A000C9447000C9447000C94470071
:100010000C9447000C9447000C9447000C94470044
:100020000C9447000C9447000C9447000C94470034
:100030000C9447000C9447000C9447000C94470024
:100040000C9447000C9447000C9447000C94470014
:100050000C94470011241FBECFE5D8E0DEBFCDBF12
:1000600010E0A0E6B0E0E4EEFDE002C005900D92E5
:10007000AE3DB107D9F710E0AEEDB0E001C01D9282
:10008000A23EB107E1F70E9497040C94F0060C948D
:10009000000020E030E04AE754E40E94A80520E098
:1000A00034E244E759E40E948D0620E030E040E06D
:1000B0005FE30E948D060E941006462F572F682F7F
:1000C000792F411551056105710559F080E090E0E7
:1000D000DC010196A11DB11D84179507A607B7077E
:1000E000C1F7089520E034E244E759E40E94A805EE
:1000F00020E034E244E759E40E948D0620E030E03D
:1001000040E05FE30E948D060E941006462F572FA5
:10011000682F792F411551056105710559F080E06F
:1001200090E0DC010196A11DB11D84179507A6077B
:10013000B707C1F70895813049F1813038F0823036
:1001400009F444C0833009F07EC05FC0442371F4D9
:100150002AB381E090E0AC0102C0440F551F6A95BC
:10016000E2F7BA01609562236ABB0895413009F055
:100170006AC02AB381E090E0AC0102C0440F551F71
:100180006A95E2F7BA01622B6ABB0895442371F4C1
:1001900027B381E090E0AC0102C0440F551F6A957F
:1001A000E2F7BA016095622367BB0895413009F018
:1001B0004AC027B381E090E0AC0102C0440F551F54
:1001C0006A95E2F7BA01622B67BB0895442371F484
:1001D00024B381E090E0AC0102C0440F551F6A9542
:1001E000E2F7BA016095622364BB0895413059F586
:1001F00024B381E090E0AC0102C0440F551F6A9522
:10020000E2F7BA01622B64BB0895442371F421B371
:1002100081E090E0AC0102C0440F551F6A95E2F7FF
:10022000BA016095622361BB0895413061F421B346
:1002300081E090E0AC0102C0440F551F6A95E2F7DF
:10024000BA01622B61BB0895813081F0813028F0C2
:100250008230A9F0833021F51BC0662311F41ABA4D
:1002600008956130E9F48FEF8ABB0895662311F495
:1002700017BA08956130A1F48FEF87BB0895662304
:1002800011F414BA0895613059F48FEF84BB0895C6
:10029000662311F411BA0895613011F48FEF81BB18
:1002A0000895813049F1813038F0823009F444C03A
:1002B000833009F07EC05FC0442371F42BB381E02A
:1002C00090E0AC0102C0440F551F6A95E2F7BA01F5
:1002D000609562236BBB0895413009F06AC02BB36F
:1002E00081E090E0AC0102C0440F551F6A95E2F72F
:1002F000BA01622B6BBB0895442371F428B381E0EB
:1003000090E0AC0102C0440F551F6A95E2F7BA01B4
:100310006095622368BB0895413009F04AC028B354
:1003200081E090E0AC0102C0440F551F6A95E2F7EE
:10033000BA01622B68BB0895442371F425B381E0B0
:1003400090E0AC0102C0440F551F6A95E2F7BA0174
:100350006095622365BB0895413059F525B381E06E
:1003600090E0AC0102C0440F551F6A95E2F7BA0154
:10037000622B65BB0895442371F422B381E090E0C1
:10038000AC0102C0440F551F6A95E2F7BA016095AF
:10039000622362BB0895413061F422B381E090E0B2
:1003A000AC0102C0440F551F6A95E2F7BA01622BF7
:1003B00062BB0895813089F0813028F08230B9F035
:1003C000833049F51EC029B330E0C90102C09595BC
:1003D00087956A95E2F78170089526B330E0C901E8
:1003E00002C0959587956A95E2F78170089523B3C9
:1003F00030E0C90102C0959587956A95E2F7817052
:10040000089520B330E0C90102C0959587956A959B
:10041000E2F78170089580E00895813049F08130DD
:1004200028F0823039F0833041F406C06BBB089568
:1004300068BB089565BB089562BB08958130A1F043
:10044000813028F08230E9F08330A1F527C02BB34A
:1004500081E090E0AC0102C0440F551F6A95E2F7BD
:10046000BA0162276BBB089528B381E090E0AC012C
:1004700002C0440F551F6A95E2F7BA01622768BBB4
:10048000089525B381E090E0AC0102C0440F551FF0
:100490006A95E2F7BA01622765BB089522B381E04D
:1004A00090E0AC0102C0440F551F6A95E2F7BA0113
:1004B000622762BB0895813059F0813028F0823084
:1004C00059F0833081F40CC08BB380958BBB0895B9
:1004D00088B3809588BB089585B3809585BB0895C2
:1004E00082B3809582BB08958130A1F0813028F0DD
:1004F0008230E9F08330A1F527C02BB381E090E092
:10050000AC0102C0440F551F6A95E2F7BA01622B95
:100510006BBB089528B381E090E0AC0102C0440FAA
:10052000551F6A95E2F7BA01622B68BB089525B39F
:1005300081E090E0AC0102C0440F551F6A95E2F7DC
:10054000BA01622B65BB089522B381E090E0AC0153
:1005500002C0440F551F6A95E2F7BA01622B62BBD5
:1005600008958130A9F0813028F08230F9F083308D
:10057000C1F52AC02BB381E090E0AC0102C0440F6A
:10058000551F6A95E2F7BA01609562236BBB089527
:1005900028B381E090E0AC0102C0440F551F6A957A
:1005A000E2F7BA016095622368BB089525B381E044
:1005B00090E0AC0102C0440F551F6A95E2F7BA0102
:1005C0006095622365BB089522B381E090E0AC01A1
:1005D00002C0440F551F6A95E2F7BA016095622385
:1005E00062BB08956F70813071F0813028F08230E5
:1005F00089F08330E1F415C08BB3807F8BBB8BB364
:10060000682B6BBB089588B3807F88BB88B3682B49
:1006100068BB089585B3807F85BB85B3682B65BBB8
:10062000089582B3807F82BB82B3682B62BB08953A
:100630006295607F813071F0813028F0823089F0DE
:100640008330E1F415C08BB38F708BBB8BB3682BF9
:100650006BBB089588B38F7088BB88B3682B68BB69
:10066000089585B38F7085BB85B3682B65BB0895EE
:1006700082B38F7082BB82B3682B62BB08952CB3A8
:1006800021FDFDCF8EBB9FBB6DBBE29AE19A089521
:100690002CB321FDFDCF8EBB9FBBE09A8DB3089597
:1006A00083E060E041E00E949B0083E061E041E084
:1006B0000E949B0083E062E041E00E949B0083E097
:1006C00063E041E00E949B0083E064E040E00E9420
:1006D0009B0083E065E040E00E949B0083E066E0D1
:1006E00040E00E949B0083E067E040E00E949B00A6
:1006F00083E064E00E94740283E065E00E9474027B
:1007000083E066E00E94740283E067E00E94740266
:1007100008950F931F93CF93DF93CDB7DEB7609704
:100720000FB6F894DEBF0FBECDBFDE011196E0E636
:10073000F0E080E101900D928150E1F700E083E06C
:1007400060E041E00E94510183E061E041E00E94ED
:10075000510183E062E041E00E94510183E063E0E7
:1007600041E00E94510183E0602F40E00E9451016E
:1007700010E0612F6C5F83E00E94DA01882361F44E
:10078000E02FF0E0EE0FFF1FEE0FFF1FE10FF11D56
:10079000EC0FFD1F818104C01F5F143051F70BC0A7
:1007A00060960FB6F894DEBF0FBECDBFDF91CF913C
:1007B0001F910F9108950F5F043009F68FEFF0CF6E
:1007C000CF93C82F60E041E00E94510160E070E0EB
:1007D00080E890E40E9449008C2F60E040E00E9495
:1007E000510160E070E080E890E40E944900CF9100
:1007F0000895682F80E00E940D0281E061E040E0F2
:100800000E94510181E00E94E003089560E070E0E1
:1008100088EC93E40E94490081E060E041E00E949E
:100820009B0081E061E041E00E949B0081E062E08A
:1008300041E00E949B0080E061E00E94240181E091
:1008400062E040E00E94510188E30E94F90360E009
:1008500070E080E890E40E9449008EE00E94F90375
:1008600060E070E080E890E40E94490081E00E942E
:10087000F90360E070E080EA91E40E94490086E0BC
:100880000E94F90360E070E080E890E40E94490073
:100890000895682F80E00E940D0281E061E041E050
:1008A0000E94510181E00E94E00308950F931F937D
:1008B000CF938C01FC018081882351F0C0E00E941D
:1008C0004904CF5FF801EC0FF11D80818823B9F74F
:1008D000CF911F910F91089581E00E94F90360E08C
:1008E00070E080EA91E40E9449000895282F215089
:1008F000223070F4662371F0613170F4813019F4A4
:10090000962F91580AC0823041F4962F915405C019
:1009100090E803C090E801C090E8892F0E94F90395
:1009200060E070E080E090E40E94490008952F921A
:100930003F924F925F926F927F928F929F92AF926F
:10094000BF92DF92EF92FF920F931F93CF93DF93AB
:100950000E9406040E94500380E190E00E94480338
:100960008F3F61F580E790E00E94560482E061E0ED
:100970000E947604C1E1D0E00E948903182F8F3FC6
:10098000D9F30E94490460E070E088E494E40E9496
:1009900049006C2F605182E00E9476048AE20E9436
:1009A0004904CE01612F0E943F032196C531D10534
:1009B00019F780E190E060E00E943F0302E30F2E10
:1009C000FDE7AF2EF0E0BF2EF02D0F2EFEEDEF2E47
:1009D000F0E0FF2EF02DDD240F2EFFED4F2EF0E086
:1009E0005F2EF02D0F2EF0EE2F2EF0E03F2EF02D8B
:1009F0000F2EFEEA8F2EF0E09F2EF02D0F2EFDEB36
:100A00006F2EF0E07F2EF02D0E946C04C5010E9435
:100A1000560482E061E00E947604E7011D2D0E94E9
:100A2000890388838F3FD9F30E94490460E070E016
:100A300088E494E40E9449001F5F82E0612F0E94D5
:100A400076048AE20E9449042196143041F781E13C
:100A500090E00E944803F70190818917A1F582E197
:100A600090E00E944803F2019081891761F583E1CB
:100A700090E00E944803F1019081891721F584E1FB
:100A800090E00E944803E1EEF0E090818917D9F4EC
:100A90000E946C0481E061E00E9476048CE890E0A2
:100AA0000E94560460E070E08AE794E40E944900E6
:100AB0000E946C0481E061E00E9476048DE990E080
:100AC0000E94560431C00033D9F00E946C04C40166
:100AD0000E94560460E070E08AE794E40E944900B6
:100AE0000E946C04C3010E945604802F0E94490496
:100AF00060E070E08AE794E40E944900015084CFEE
:100B00000E946C0481E061E00E9476048EEA90E02D
:100B10000E9456040E946C0481E061E00E94760409
:100B20008AEC90E00E94560480E090E0DF91CF9143
:100B30001F910F91FF90EF90DF90BF90AF909F902B
:100B40008F907F906F905F904F903F902F9008957F
:100B50000CD0A9C0A1D040F098D030F021F45F3F74
:100B600019F08AC05111D3C08DC0AED098F399232B
:100B7000C9F35523B1F3951B550BBB27AA27621761
:100B80007307840738F09F5F5F4F220F331F441FA6
:100B9000AA1FA9F333D00E2E3AF0E0E830D09150DE
:100BA0005040E695001CCAF729D0FE2F27D0660FCB
:100BB000771F881FBB1F261737074807AB07B0E80A
:100BC00009F0BB0B802DBF01FF2793585F4F2AF020
:100BD0009E3F510568F050C09AC05F3FECF3983ECD
:100BE000DCF3869577956795B795F7959F5FC9F77D
:100BF000880F911D9695879597F90895E1E0660F06
:100C0000771F881FBB1F621773078407BA0720F07E
:100C1000621B730B840BBA0BEE1F88F7E0950895E7
:100C20005BD088F09F5790F0B92F9927B751A0F06B
:100C3000D1F0660F771F881F991F1AF0BA95C9F770
:100C400012C0B13081F062D0B1E008955FC0672F6B
:100C5000782F8827B85F39F0B93FCCF38695779520
:100C60006795B395D9F73EF4909580957095619509
:100C70007F4F8F4F9F4F089597F99F6780E870E0EF
:100C800060E008959FEF80EC089500240A94161602
:100C9000170618060906089500240A94121613066A
:100CA000140605060895092E0394000C11F48823F8
:100CB00052F0BB0F40F4BF2B11F460FF04C06F5F14
:100CC0007F4F8F4F9F4F089557FD9058440F551FEA
:100CD00059F05F3F71F04795880F97FB991F61F0BE
:100CE0009F3F79F087950895121613061406551F35
:100CF000F2CF4695F1DF08C0161617061806991FA1
:100D0000F1CF86957105610508940895E894BB2795
:100D100066277727CB0197F908950BD0C4CFB5DFAD
:100D200028F0BADF18F0952309F0A6CFABCF112435
:100D3000EECFCADFA0F3959FD1F3950F50E0551F7A
:100D4000629FF001729FBB27F00DB11D639FAA2720
:100D5000F00DB11DAA1F649F6627B00DA11D661F6F
:100D6000829F2227B00DA11D621F739FB00DA11D90
:100D7000621F839FA00D611D221F749F3327A00D4A
:100D8000611D231F849F600D211D822F762F6A2FE6
:100D900011249F5750408AF0E1F088234AF0EE0F6B
:100DA000FF1FBB1F661F771F881F91505040A9F778
:100DB0009E3F510570F060CFAACF5F3FECF3983EA5
:100DC000DCF3869577956795B795F795E7959F5FDF
:100DD000C1F7FE2B880F911D9695879597F9089579
:040DE000F894FFCFB5
:100DE4003738392F3435362A3132332D41303D2BC3
:100DF4005365742050617373776F726400456E7429
:100E040065722050617373776F726400436F7272FE
:100E14006563742050617373776F726400546865FE
:100E24002073616665206973206F70656E00577268
:100E34006F6E672050617373776F7264004C6566E0
:100E44007420747269616C733A005468652073612C
:0E0E5400666520697320636C6F73656400002F
:00000001FF
