:100000000C942A000C9447000C9447000C94470071
:100010000C9447000C9447000C9447000C94470044
:100020000C9447000C9447000C9447000C94470034
:100030000C9447000C9447000C9447000C94470024
:100040000C9447000C9447000C9447000C94470014
:100050000C94470011241FBECFE5D8E0DEBFCDBF12
:1000600010E0A0E6B0E0E8EAF0E102C005900D92F1
:10007000A839B107D9F710E0A8E9B0E001C01D9296
:10008000A23AB107E1F70E9465060C9452080C945D
:10009000000020E030E04AE754E40E946C0620E0D3
:1000A00034E244E759E40E948E0720E030E040E06B
:1000B0005FE30E948E070E94D406462F572F682FB9
:1000C000792F411551056105710559F080E090E0E7
:1000D000DC010196A11DB11D84179507A607B7077E
:1000E000C1F7089520E034E244E759E40E946C0629
:1000F00020E034E244E759E40E948E0720E030E03B
:1001000040E05FE30E948E070E94D406462F572FDF
:10011000682F792F411551056105710559F080E06F
:1001200090E0DC010196A11DB11D84179507A6077B
:10013000B707C1F70895813049F1813038F0823036
:1001400009F444C0833009F07EC05FC0442371F4D9
:100150002AB381E090E0AC0102C0440F551F6A95BC
:10016000E2F7BA01609562236ABB0895413009F055
:100170006AC02AB381E090E0AC0102C0440F551F71
:100180006A95E2F7BA01622B6ABB0895442371F4C1
:1001900027B381E090E0AC0102C0440F551F6A957F
:1001A000E2F7BA016095622367BB0895413009F018
:1001B0004AC027B381E090E0AC0102C0440F551F54
:1001C0006A95E2F7BA01622B67BB0895442371F484
:1001D00024B381E090E0AC0102C0440F551F6A9542
:1001E000E2F7BA016095622364BB0895413059F586
:1001F00024B381E090E0AC0102C0440F551F6A9522
:10020000E2F7BA01622B64BB0895442371F421B371
:1002100081E090E0AC0102C0440F551F6A95E2F7FF
:10022000BA016095622361BB0895413061F421B346
:1002300081E090E0AC0102C0440F551F6A95E2F7DF
:10024000BA01622B61BB0895813081F0813028F0C2
:100250008230A9F0833021F51BC0662311F41ABA4D
:1002600008956130E9F48FEF8ABB0895662311F495
:1002700017BA08956130A1F48FEF87BB0895662304
:1002800011F414BA0895613059F48FEF84BB0895C6
:10029000662311F411BA0895613011F48FEF81BB18
:1002A0000895813049F1813038F0823009F444C03A
:1002B000833009F07EC05FC0442371F42BB381E02A
:1002C00090E0AC0102C0440F551F6A95E2F7BA01F5
:1002D000609562236BBB0895413009F06AC02BB36F
:1002E00081E090E0AC0102C0440F551F6A95E2F72F
:1002F000BA01622B6BBB0895442371F428B381E0EB
:1003000090E0AC0102C0440F551F6A95E2F7BA01B4
:100310006095622368BB0895413009F04AC028B354
:1003200081E090E0AC0102C0440F551F6A95E2F7EE
:10033000BA01622B68BB0895442371F425B381E0B0
:1003400090E0AC0102C0440F551F6A95E2F7BA0174
:100350006095622365BB0895413059F525B381E06E
:1003600090E0AC0102C0440F551F6A95E2F7BA0154
:10037000622B65BB0895442371F422B381E090E0C1
:10038000AC0102C0440F551F6A95E2F7BA016095AF
:10039000622362BB0895413061F422B381E090E0B2
:1003A000AC0102C0440F551F6A95E2F7BA01622BF7
:1003B00062BB0895813089F0813028F08230B9F035
:1003C000833049F51EC029B330E0C90102C09595BC
:1003D00087956A95E2F78170089526B330E0C901E8
:1003E00002C0959587956A95E2F78170089523B3C9
:1003F00030E0C90102C0959587956A95E2F7817052
:10040000089520B330E0C90102C0959587956A959B
:10041000E2F78170089580E00895813049F08130DD
:1004200028F0823039F0833041F406C06BBB089568
:1004300068BB089565BB089562BB08958130A1F043
:10044000813028F08230E9F08330A1F527C02BB34A
:1004500081E090E0AC0102C0440F551F6A95E2F7BD
:10046000BA0162276BBB089528B381E090E0AC012C
:1004700002C0440F551F6A95E2F7BA01622768BBB4
:10048000089525B381E090E0AC0102C0440F551FF0
:100490006A95E2F7BA01622765BB089522B381E04D
:1004A00090E0AC0102C0440F551F6A95E2F7BA0113
:1004B000622762BB0895813059F0813028F0823084
:1004C00059F0833081F40CC08BB380958BBB0895B9
:1004D00088B3809588BB089585B3809585BB0895C2
:1004E00082B3809582BB08958130A1F0813028F0DD
:1004F0008230E9F08330A1F527C02BB381E090E092
:10050000AC0102C0440F551F6A95E2F7BA01622B95
:100510006BBB089528B381E090E0AC0102C0440FAA
:10052000551F6A95E2F7BA01622B68BB089525B39F
:1005300081E090E0AC0102C0440F551F6A95E2F7DC
:10054000BA01622B65BB089522B381E090E0AC0153
:1005500002C0440F551F6A95E2F7BA01622B62BBD5
:1005600008958130A9F0813028F08230F9F083308D
:10057000C1F52AC02BB381E090E0AC0102C0440F6A
:10058000551F6A95E2F7BA01609562236BBB089527
:1005900028B381E090E0AC0102C0440F551F6A957A
:1005A000E2F7BA016095622368BB089525B381E044
:1005B00090E0AC0102C0440F551F6A95E2F7BA0102
:1005C0006095622365BB089522B381E090E0AC01A1
:1005D00002C0440F551F6A95E2F7BA016095622385
:1005E00062BB08956F70813071F0813028F08230E5
:1005F00089F08330E1F415C08BB3807F8BBB8BB364
:10060000682B6BBB089588B3807F88BB88B3682B49
:1006100068BB089585B3807F85BB85B3682B65BBB8
:10062000089582B3807F82BB82B3682B62BB08953A
:100630006295607F813071F0813028F0823089F0DE
:100640008330E1F415C08BB38F708BBB8BB3682BF9
:100650006BBB089588B38F7088BB88B3682B68BB69
:10066000089585B38F7085BB85B3682B65BB0895EE
:1006700082B38F7082BB82B3682B62BB0895AF9246
:10068000BF92CF92DF92EF92FF920F931F93CF937F
:10069000DF935C018B0188B7806288BF0E945B0694
:1006A00008B605FEFDCF86B597B590939900809367
:1006B000980088B7806288BF8EB581608EBD8EB588
:1006C0008F7B8EBD8EB580688EBD08B605FEFDCFD2
:1006D00086B597B59093A1008093A00088B78062FB
:1006E00088BF81EC8EBD08B605FEFDCF86B597B5F7
:1006F00090939D0080939C0088B7806288BF8EB5E0
:100700008E7F8EBD8EB58D7F8EBD8EB58B7F8EBD5F
:1007100020919800309199008091A0009091A100C3
:100720002817390708F045C040919C0050919D0062
:100730008417950708F03FC0821B930B90939F008E
:1007400080939E00EA01C21BD30BD0939B00C09301
:100750009A00BC0180E090E00E9400076B017C01E0
:10076000BE0180E090E00E9400079B01AC01C70140
:10077000B6010E946C0620E030E048EC52E40E9492
:100780008E070E94D406DC01CB01F801918380839F
:1007900020919A0030919B0040E050E060E472E4C8
:1007A0008FE090E00E943008F5013183208381E0E2
:1007B00003C080E001C080E0DF91CF911F910F91D5
:1007C000FF90EF90DF90CF90BF90AF900895EF92A1
:1007D000FF920F931F93CF93DF93EC018B01413076
:1007E00009F04DC00E94730580E690E00E94C305A9
:1007F0000F2EFAE0EF2EFF24F02DCE01B7010E945C
:100800001C08C82F862F805D0E94B6058C2F805D46
:100810000E94B60585E20E94B60582E061E00E9472
:10082000E30586E690E00E94C305C80168EE73E028
:100830000E941C08862F805D0E94B605C80164E6F0
:1008400070E00E941C08CB01B7010E941C08805D6B
:100850000E94B605C801B7010E941C08C82FCB0131
:10086000B7010E941C08805D0E94B6058C2F805D38
:100870000E94B60581E790E00E94C30508C04423AA
:1008800031F40E94D90584E790E00E94C305DF910E
:10089000CF911F910F91FF90EF90089583E067E053
:1008A00041E00E949B000E943F0688B7806288BF9B
:1008B00083E067E041E00E94510160E070E088E47D
:1008C00092E40E94720083E067E040E00E945101E0
:1008D0000E945B0688B785FFFDCF86B597B528B720
:1008E000206228BF2EB52F7B2EBD28B725FFFDCF58
:1008F00066B577B528B7206228BF1DBC1CBC1EBCDE
:10090000681B790B80E090E028E237E840E050E097
:100910000E94F10720E834E84EE150E00E943008E0
:10092000822F0895CF93C82F833668F00E94D9058F
:1009300081E890E00E94C30560E070E08AEF93E4F4
:100940000E9449001CC00E94D9058BE890E00E94DB
:10095000C3058C2F6AE00E941008C92F805D0E9499
:10096000B6058C2F805D0E94B60585E990E00E9457
:10097000C30560E070E08AEF93E40E944900CF91E4
:1009800008958FB780688FBF08958FB78F778FBF17
:100990000895813049F0813018F0823061F408C048
:1009A0008BB780648BBF08958BB780688BBF089529
:1009B0008BB780628BBF0895813049F0813018F089
:1009C000823061F408C08BB78F7B8BBF08958BB7E3
:1009D0008F778BBF08958BB78F7D8BBF089588234A
:1009E00031F5613079F0613030F0623091F0633090
:1009F00009F052C015C085B78E7F85BF85B78D7F42
:100A000085BF089585B7816085BF85B78D7F85BF18
:100A1000089585B78E7F85BF85B7826085BF0895AD
:100A200085B7816085BF85B7826085BF08958130B5
:100A300029F5613071F0613028F0623089F063305F
:100A400059F515C085B78B7F85BF85B7877F85BF73
:100A5000089585B7846085BF85B7877F85BF089572
:100A600085B78B7F85BF85B7886085BF089585B7BB
:100A7000846085BF85B7886085BF0895823061F442
:100A8000623019F0633041F404C084B78F7B84BFB7
:100A9000089584B7806484BF0895CF93C82F60E021
:100AA00041E00E94510160E070E080E890E40E9423
:100AB00049008C2F60E040E00E94510160E070E04E
:100AC00080E890E40E944900CF910895682F80E06B
:100AD0000E940D0281E061E040E00E94510181E04E
:100AE0000E944D05089560E070E088EC93E40E9458
:100AF000490081E060E041E00E949B0081E061E00C
:100B000041E00E949B0081E062E041E00E949B0086
:100B100080E061E00E94240181E062E040E00E9408
:100B2000510188E30E94660560E070E080E890E48F
:100B30000E9449008CE00E94660560E070E080E859
:100B400090E40E94490081E00E94660560E070E048
:100B500080EA91E40E94490086E00E94660560E018
:100B600070E080E890E40E9449000895682F80E0DA
:100B70000E940D0281E061E041E00E94510181E0AC
:100B80000E944D0508950F931F93CF938C01FC0194
:100B90008081882351F0C0E00E94B605CF5FF80144
:100BA000EC0FF11D80818823B9F7CF911F910F9130
:100BB000089581E00E94660560E070E080EA91E4BB
:100BC0000E9449000895282F2150223070F4662396
:100BD00071F0613170F4813019F4962F91580AC088
:100BE000823041F4962F915405C090E803C090E8FC
:100BF00001C090E8892F0E94660560E070E080E007
:100C000090E40E944900089583B7816083BF83B751
:100C10008D7F83BF83B7846083BF83B78F7B83BFA0
:100C200083B7877F83BF83B78F7E83BF83B780629D
:100C300083BF08950E94C10489B7816089BF089568
:100C400082B5886082BD85B58E7F85BD85B58D7F77
:100C500085BD85B58B7F85BD85B58F7B85BD85B50C
:100C6000877F85BD85B58F7E85BD85B5806285BD55
:100C700008950E94C10489B7806489BF08958EB524
:100C800081608EBD8EB58D7F8EBD8EB58B7F8EBD06
:100C90008FB58E7F8FBD8FB58D7F8FBD8EB5877FD2
:100CA0008EBD8EB58F7E8EBD08950E94C10489B71A
:100CB000846089BF08958EB580688EBD8EB58064CE
:100CC0008EBD89B7806289BF08950E9473050E9416
:100CD0004E040E949204FBCF0CD0E6C0DED040F060
:100CE000D5D030F021F45F3F19F0C7C0511110C1C9
:100CF000CAC0EBD098F39923C9F35523B1F3951BE0
:100D0000550BBB27AA2762177307840738F09F5F2C
:100D10005F4F220F331F441FAA1FA9F333D00E2E9B
:100D20003AF0E0E830D091505040E695001CCAF708
:100D300029D0FE2F27D0660F771F881FBB1F2617CD
:100D400037074807AB07B0E809F0BB0B802DBF01A0
:100D5000FF2793585F4F2AF09E3F510568F08DC0E2
:100D6000D7C05F3FECF3983EDCF3869577956795A7
:100D7000B795F7959F5FC9F7880F911D9695879551
:100D800097F90895E1E0660F771F881FBB1F621770
:100D900073078407BA0720F0621B730B840BBA0B2E
:100DA000EE1F88F7E095089598D088F09F5790F04F
:100DB000B92F9927B751A0F0D1F0660F771F881F80
:100DC000991F1AF0BA95C9F712C0B13081F09FD0BF
:100DD000B1E008959CC0672F782F8827B85F39F05D
:100DE000B93FCCF3869577956795B395D9F73EF4DF
:100DF00090958095709561957F4F8F4F9F4F089587
:100E0000E89409C097FB3EF49095809570956195A4
:100E10007F4F8F4F9F4F9923A9F0F92F96E9BB275A
:100E20009395F695879577956795B795F111F8CFD6
:100E3000FAF4BB0F11F460FF1BC06F5F7F4F8F4F41
:100E40009F4F16C0882311F096E911C0772321F037
:100E50009EE8872F762F05C0662371F096E8862FCF
:100E600070E060E02AF09A95660F771F881FDAF726
:100E7000880F9695879597F9089597F99F6780E869
:100E800070E060E008959FEF80EC089500240A94DC
:100E90001616170618060906089500240A94121655
:100EA0001306140605060895092E0394000C11F488
:100EB000882352F0BB0F40F4BF2B11F460FF04C035
:100EC0006F5F7F4F8F4F9F4F089557FD9058440F8E
:100ED000551F59F05F3F71F04795880F97FB991F99
:100EE00061F09F3F79F08795089512161306140656
:100EF000551FF2CF4695F1DF08C0161617061806E3
:100F0000991FF1CF86957105610508940895E894BD
:100F1000BB2766277727CB0197F908950BD0C4CF5D
:100F2000B5DF28F0BADF18F0952309F0A6CFABCFD4
:100F30001124EECFCADFA0F3959FD1F3950F50E0B7
:100F4000551F629FF001729FBB27F00DB11D639F7B
:100F5000AA27F00DB11DAA1F649F6627B00DA11D21
:100F6000661F829F2227B00DA11D621F739FB00DC7
:100F7000A11D621F839FA00D611D221F749F332737
:100F8000A00D611D231F849F600D211D822F762FD0
:100F90006A2F11249F5750408AF0E1F088234AF0CD
:100FA000EE0FFF1FBB1F661F771F881F9150504019
:100FB000A9F79E3F510570F060CFAACF5F3FECF3D9
:100FC000983EDCF3869577956795B795F795E79505
:100FD0009F5FC1F7FE2B880F911D9695879597F916
:100FE0000895629FD001739FF001829FE00DF11D73
:100FF000649FE00DF11D929FF00D839FF00D749F93
:10100000F00D659FF00D9927729FB00DE11DF91F3E
:10101000639FB00DE11DF91FBD01CF01112408959B
:10102000991B79E004C0991F961708F0961B881F3A
:101030007A95C9F780950895AA1BBB1B51E107C09B
:10104000AA1FBB1FA617B70710F0A61BB70B881F58
:10105000991F5A95A9F780959095BC01CD010895E7
:10106000A1E21A2EAA1BBB1BFD010DC0AA1FBB1FAC
:10107000EE1FFF1FA217B307E407F50720F0A21B1E
:10108000B30BE40BF50B661F771F881F991F1A948B
:1010900069F760957095809590959B01AC01BD01B5
:0810A000CF010895F894FFCF81
:1010A800447574793A004672657175656E63793A6C
:1010B80000485A004F5554204F462052414E47454C
:1010C800004E6F204F626A656374004469737461EF
:0810D8006E63652000636D00EA
:00000001FF
