:100000000C942A000C9447000C9447000C94470071
:100010000C9447000C9447000C9447000C94470044
:100020000C9447000C9447000C9447000C94470034
:100030000C9447000C9447000C9447000C94470024
:100040000C9447000C9447000C9447000C94470014
:100050000C94470011241FBECFE5D8E0DEBFCDBF12
:1000600010E0A0E6B0E0E4E1FCE002C005900D92F3
:10007000A437B107D9F710E0A4E7B0E001C01D92A2
:10008000A837B107E1F70E943F030C9408060C94CF
:10009000000020E030E04AE754E40E94C00420E081
:1000A00034E244E759E40E94A50520E030E040E056
:1000B0005FE30E94A5050E942805462F572F682F51
:1000C000792F411551056105710559F080E090E0E7
:1000D000DC010196A11DB11D84179507A607B7077E
:1000E000C1F7089520E034E244E759E40E94C004D7
:1000F00020E034E244E759E40E94A50520E030E026
:1001000040E05FE30E94A5050E942805462F572F77
:10011000682F792F411551056105710559F080E06F
:1001200090E0DC010196A11DB11D84179507A6077B
:10013000B707C1F70895813049F1813038F0823036
:1001400009F444C0833009F07EC05FC0442371F4D9
:100150002AB381E090E0AC0102C0440F551F6A95BC
:10016000E2F7BA01609562236ABB0895413009F055
:100170006AC02AB381E090E0AC0102C0440F551F71
:100180006A95E2F7BA01622B6ABB0895442371F4C1
:1001900027B381E090E0AC0102C0440F551F6A957F
:1001A000E2F7BA016095622367BB0895413009F018
:1001B0004AC027B381E090E0AC0102C0440F551F54
:1001C0006A95E2F7BA01622B67BB0895442371F484
:1001D00024B381E090E0AC0102C0440F551F6A9542
:1001E000E2F7BA016095622364BB0895413059F586
:1001F00024B381E090E0AC0102C0440F551F6A9522
:10020000E2F7BA01622B64BB0895442371F421B371
:1002100081E090E0AC0102C0440F551F6A95E2F7FF
:10022000BA016095622361BB0895413061F421B346
:1002300081E090E0AC0102C0440F551F6A95E2F7DF
:10024000BA01622B61BB0895813081F0813028F0C2
:100250008230A9F0833021F51BC0662311F41ABA4D
:1002600008956130E9F48FEF8ABB0895662311F495
:1002700017BA08956130A1F48FEF87BB0895662304
:1002800011F414BA0895613059F48FEF84BB0895C6
:10029000662311F411BA0895613011F48FEF81BB18
:1002A0000895813049F1813038F0823009F444C03A
:1002B000833009F07EC05FC0442371F42BB381E02A
:1002C00090E0AC0102C0440F551F6A95E2F7BA01F5
:1002D000609562236BBB0895413009F06AC02BB36F
:1002E00081E090E0AC0102C0440F551F6A95E2F72F
:1002F000BA01622B6BBB0895442371F428B381E0EB
:1003000090E0AC0102C0440F551F6A95E2F7BA01B4
:100310006095622368BB0895413009F04AC028B354
:1003200081E090E0AC0102C0440F551F6A95E2F7EE
:10033000BA01622B68BB0895442371F425B381E0B0
:1003400090E0AC0102C0440F551F6A95E2F7BA0174
:100350006095622365BB0895413059F525B381E06E
:1003600090E0AC0102C0440F551F6A95E2F7BA0154
:10037000622B65BB0895442371F422B381E090E0C1
:10038000AC0102C0440F551F6A95E2F7BA016095AF
:10039000622362BB0895413061F422B381E090E0B2
:1003A000AC0102C0440F551F6A95E2F7BA01622BF7
:1003B00062BB0895813089F0813028F08230B9F035
:1003C000833049F51EC029B330E0C90102C09595BC
:1003D00087956A95E2F78170089526B330E0C901E8
:1003E00002C0959587956A95E2F78170089523B3C9
:1003F00030E0C90102C0959587956A95E2F7817052
:10040000089520B330E0C90102C0959587956A959B
:10041000E2F78170089580E00895813049F08130DD
:1004200028F0823039F0833041F406C06BBB089568
:1004300068BB089565BB089562BB08958130A1F043
:10044000813028F08230E9F08330A1F527C02BB34A
:1004500081E090E0AC0102C0440F551F6A95E2F7BD
:10046000BA0162276BBB089528B381E090E0AC012C
:1004700002C0440F551F6A95E2F7BA01622768BBB4
:10048000089525B381E090E0AC0102C0440F551FF0
:100490006A95E2F7BA01622765BB089522B381E04D
:1004A00090E0AC0102C0440F551F6A95E2F7BA0113
:1004B000622762BB0895813059F0813028F0823084
:1004C00059F0833081F40CC08BB380958BBB0895B9
:1004D00088B3809588BB089585B3809585BB0895C2
:1004E00082B3809582BB08958130A1F0813028F0DD
:1004F0008230E9F08330A1F527C02BB381E090E092
:10050000AC0102C0440F551F6A95E2F7BA01622B95
:100510006BBB089528B381E090E0AC0102C0440FAA
:10052000551F6A95E2F7BA01622B68BB089525B39F
:1005300081E090E0AC0102C0440F551F6A95E2F7DC
:10054000BA01622B65BB089522B381E090E0AC0153
:1005500002C0440F551F6A95E2F7BA01622B62BBD5
:1005600008958130A9F0813028F08230F9F083308D
:10057000C1F52AC02BB381E090E0AC0102C0440F6A
:10058000551F6A95E2F7BA01609562236BBB089527
:1005900028B381E090E0AC0102C0440F551F6A957A
:1005A000E2F7BA016095622368BB089525B381E044
:1005B00090E0AC0102C0440F551F6A95E2F7BA0102
:1005C0006095622365BB089522B381E090E0AC01A1
:1005D00002C0440F551F6A95E2F7BA016095622385
:1005E00062BB08956F70813071F0813028F08230E5
:1005F00089F08330E1F415C08BB3807F8BBB8BB364
:10060000682B6BBB089588B3807F88BB88B3682B49
:1006100068BB089585B3807F85BB85B3682B65BBB8
:10062000089582B3807F82BB82B3682B62BB08953A
:100630006295607F813071F0813028F0823089F0DE
:100640008330E1F415C08BB38F708BBB8BB3682BF9
:100650006BBB089588B38F7088BB88B3682B68BB69
:10066000089585B38F7085BB85B3682B65BB0895EE
:1006700082B38F7082BB82B3682B62BB08950E94E5
:100680002F0481E063E041E00E949B0081E064E090
:1006900041E00E949B0081E065E041E00E949B00F8
:1006A00081E066E041E00E949B0081E067E041E07C
:1006B0000E949B0080E690E00E947F0481E06CE055
:1006C0000E949F0485E690E00E947F0482E061E042
:1006D0000E949F048AE690E00E947F0482E06CE022
:1006E0000E949F048FE690E00E947F04C0E6D0E065
:1006F00005E610E00F2EFAE6EF2EF0E0FF2EF02DCB
:100700000F2EFFE6CF2EF0E0DF2EF02D81E063E02C
:100710000E94DA01813079F4809177008F5F8093B5
:10072000770081E064E00E949F0480917700805D03
:100730000E94720467C081E064E00E94DA018130A7
:1007400079F4809176008F5F8093760081E06FE08E
:100750000E949F0480917600805D0E94720452C0C6
:1007600081E065E00E94DA01813079F480917500C2
:100770008F5F8093750082E064E00E949F04809107
:100780007500805D0E9472043DC081E066E00E94B9
:10079000DA01813079F4809174008F5F8093740066
:1007A00082E06FE00E949F0480917400805D0E944F
:1007B000720428C081E067E00E94DA01813011F5FF
:1007C0000E949504109274001092750010927600A9
:1007D00010927700CE010E947F0481E06CE00E94BD
:1007E0009F04C8010E947F0482E061E00E949F0490
:1007F000C7010E947F0482E06CE00E949F04C60152
:100800000E947F0460E070E086E993E40E94490062
:100810007DCFCF93C82F60E041E00E94510160E09E
:1008200070E080E890E40E9449008C2F60E040E096
:100830000E94510160E070E080E890E40E9449006D
:10084000CF910895682F80E00E940D0281E061E061
:1008500040E00E94510181E00E940904089560E097
:1008600070E088EC93E40E94490081E060E041E0A0
:100870000E949B0081E061E041E00E949B0081E0DA
:1008800062E041E00E949B0080E061E00E94240160
:1008900081E062E040E00E94510188E30E9422046E
:1008A00060E070E080E890E40E9449008CE00E94E3
:1008B000220460E070E080E890E40E94490081E05A
:1008C0000E94220460E070E080EA91E40E94490006
:1008D00086E00E94220460E070E080E890E40E94DC
:1008E00049000895682F80E00E940D0281E061E0D8
:1008F00041E00E94510181E00E94090408950F9394
:100900001F93CF938C01FC018081882351F0C0E0BC
:100910000E947204CF5FF801EC0FF11D80818823E3
:10092000B9F7CF911F910F91089581E00E942204A1
:1009300060E070E080EA91E40E9449000895282F69
:100940002150223070F4662371F0613170F48130EF
:1009500019F4962F91580AC0823041F4962F915481
:1009600005C090E803C090E801C090E8892F0E947C
:10097000220460E070E080E090E40E944900089565
:100980000CD0A9C0A1D040F098D030F021F45F3F46
:1009900019F08AC05111D3C08DC0AED098F39923FD
:1009A000C9F35523B1F3951B550BBB27AA27621733
:1009B0007307840738F09F5F5F4F220F331F441F78
:1009C000AA1FA9F333D00E2E3AF0E0E830D09150B0
:1009D0005040E695001CCAF729D0FE2F27D0660F9D
:1009E000771F881FBB1F261737074807AB07B0E8DC
:1009F00009F0BB0B802DBF01FF2793585F4F2AF0F2
:100A00009E3F510568F050C09AC05F3FECF3983E9E
:100A1000DCF3869577956795B795F7959F5FC9F74E
:100A2000880F911D9695879597F90895E1E0660FD7
:100A3000771F881FBB1F621773078407BA0720F050
:100A4000621B730B840BBA0BEE1F88F7E0950895B9
:100A50005BD088F09F5790F0B92F9927B751A0F03D
:100A6000D1F0660F771F881F991F1AF0BA95C9F742
:100A700012C0B13081F062D0B1E008955FC0672F3D
:100A8000782F8827B85F39F0B93FCCF386957795F2
:100A90006795B395D9F73EF49095809570956195DB
:100AA0007F4F8F4F9F4F089597F99F6780E870E0C1
:100AB00060E008959FEF80EC089500240A941616D4
:100AC000170618060906089500240A94121613063C
:100AD000140605060895092E0394000C11F48823CA
:100AE00052F0BB0F40F4BF2B11F460FF04C06F5FE6
:100AF0007F4F8F4F9F4F089557FD9058440F551FBC
:100B000059F05F3F71F04795880F97FB991F61F08F
:100B10009F3F79F087950895121613061406551F06
:100B2000F2CF4695F1DF08C0161617061806991F72
:100B3000F1CF86957105610508940895E894BB2767
:100B400066277727CB0197F908950BD0C4CFB5DF7F
:100B500028F0BADF18F0952309F0A6CFABCF112407
:100B6000EECFCADFA0F3959FD1F3950F50E0551F4C
:100B7000629FF001729FBB27F00DB11D639FAA27F2
:100B8000F00DB11DAA1F649F6627B00DA11D661F41
:100B9000829F2227B00DA11D621F739FB00DA11D62
:100BA000621F839FA00D611D221F749F3327A00D1C
:100BB000611D231F849F600D211D822F762F6A2FB8
:100BC00011249F5750408AF0E1F088234AF0EE0F3D
:100BD000FF1FBB1F661F771F881F91505040A9F74A
:100BE0009E3F510570F060CFAACF5F3FECF3983E77
:100BF000DCF3869577956795B795F795E7959F5FB1
:100C0000C1F7FE2B880F911D9695879597F908954A
:040C1000F894FFCF86
:100C140043313D300043323D300043333D300043E7
:040C2400343D30002B
:00000001FF
